:03000300020009EF
:0100090032C4
:0300130002000ADE
:01000A0032C3
:03003B00020011AF
:0100110032BC
:03004300020012A6
:0100120032BB
:10112A000A0A0A000A2A2A2A2A2A2A2A2A2A2A2ABF
:10113A002A2A2A2A2A2A2A2A2A2A2A2A2A2A2A2A05
:10114A002A2A2A2A2A2A2A2A2A2A2A2A2A2A2A2AF5
:10115A002A2A2A2A2A2A2A2A2A2A2A2A2A000A5306
:10116A006934373578204D6963726F6469676974C9
:10117A00616C20426F617264202D2025732028251E
:10118A0073290031373A35333A34310044656320E4
:10119A0031372032303137000A0D20454550524F41
:1011AA004D20434845434B204F4B000A0D204545EF
:1011BA0050524F4D2044617461204F76657200533E
:1011CA0079735061722E4272696768746E657373BF
:1011DA003D2025303262780D0A00537973506172CE
:1011EA002E436F6E74726173743D202530326278BB
:1011FA000D0A005379735061722E4261636B6C69F8
:10120A006768743D2025303262780D0A005379737D
:10121A005061722E436F6C6F723D202530326278B6
:10122A000D0A005379735061722E53686172703DD2
:10123A002025303262780D0A005379735061722E7C
:10124A00566F6C756D653D2025303262780D0A0047
:10125A000D0A2073617665206F6B00202020002024
:0F126A000802004D44570000010105000601066F
:0E1D690044016400000000440160000000001E
:101BDE00121F4B12201912221E1221C07BFF7A11E6
:101BEE00792A121E557BFF7A11792E121E559001FD
:101BFE000374FFF0A37411F0A3748DF0A374FFF0BF
:101C0E00A37411F0A37496F07BFF7A117968121EFB
:101C1E00557BFF7A11792E121E557F017E00122000
:101C2E004A1217A212213F121645122183121AF1DF
:101C3E00121ED7D21812223A121F801216FF80F8E7
:10204A00E4FDFCC3ED9FEC9E5022E4FBFA00000085
:10205A00000000000000000000000BBB00010AEBBA
:0C206A0064964A70E80DBD00010C80D7A0
:012076002247
:0F220F00EF1FAC0670011E4C6004000080F2222D
:101FE700900100EEF0A3EFF09001641209FF0000EA
:101FF7000000900100E0FEA3E0FFE4FCFD90016417
:10200700E0F8A3E0F9A3E0FAA3E0FBC31209AE40AE
:02201700E122C4
:081CB7007D087C007F007E3EE9
:101CBF00900103EEF0A3EFF0ED4C604578E0740A6D
:101CCF00F2087405F2900103A3E008F2900103E01B
:101CDF00540F08F21207EF78E8F278E47418F278EC
:101CEF00E0E4F208F2900104E004F07006900103C2
:101CFF00E004F0ED1D70011C740129F9E43AFA803B
:021D0F00B722F9
:1019F500900108ECF0A3EDF0A3EBF0A3EAF0A3E966
:011A0500F0F0
:101A0600E4A3F0A3EEF0A3EFF0E490010DF0900153
:101A16000DE0FD7C00D3900109E09D900108E09C5B
:101A2600404C90010EE0FEA3E0900111F0EE540F41
:101A3600900110F0A3E0FF78E2F2900110E008F2C6
:101A4600EF2DFFE433FE74802FF582740E3EF5838E
:101A5600E0FF90010AE0FBA3E475F001120842A939
:0E1A6600F0FAEF12080890010DE004F080A0E5
:011A7400224F
:1021DC0078E0740AF2087405F208E4F208743EF22E
:0B21EC00087428F278E0E4F208F22208
:030006007F032253
:03000E007F03224B
:03003E007F062218
:100EBC00E4900104F0A3F0120006900103EFF0E4BB
:100ECC00900100F0900103E0FF900100E0FEC39F51
:100EDC00501BEE90126D93FD900105E02DF09001EA
:100EEC0004E03400F0900100E004F080D79001029F
:100EFC00EFF012000EA3EFF0E4900100F09001036C
:100F0C00E0FF900100E0FEC39F501BEE9012709327
:100F1C00FD900105E02DF0900104E03400F090010B
:100F2C0000E004F080D7900102E02FF012003EA305
:100F3C00EFF0E4900100F0900103E0FF900100E07D
:100F4C00FEC39F501BEE90127393FD900105E02D94
:100F5C00F0900104E03400F0900100E004F080D740
:100F6C00900102E02FA3F0E4900101F0E49001065F
:100F7C00F0A3F0900100F0900103E0FF900100E07D
:100F8C00FEC39F502FEE2420FFE4343EFE7B017AFB
:100F9C000179027D017C001219F5900102E0FF90AD
:100FAC000107E02FF0900106E03400F0900100E022
:100FBC0004F080C3900106E0FEA3E0FF900104E082
:100FCC00B50611A3E0B5070C7BFF7A1179A2121FAD
:100FDC00B47F0122900101E004F0E0C39402408C44
:020FEC007F0084
:010FEE0022E0
:101A7500900100743EF0A37420F0120006A3EFF06D
:101A8500FD900100E0FEA3E0FF7C007BFF7A127968
:101A95006D121CBF900102E0FF900101E02FF09054
:101AA5000100E03400F012000E900102EFF0FD900D
:101AB5000100E0FEA3E0FF7C007A127970121CBFE2
:101AC500900102E0FF900101E02FF0900100E03469
:101AD50000F012003E900102EFF0FD900100E0FEE3
:0C1AE500A3E0FF7C007A127973021CBFA2
:10218300E4F521F520120EBCEF70137BFF7A127970
:0F21930065121CB77A1179B5121FB4121A752292
:101AF1007B007A0079247D087C007F007E3E1219EC
:101B0100F57BFF7A1179C9900103E524F0121E5586
:101B11007BFF7A1179E4900103E525F0121E557BD4
:101B2100FF7A1179FD900103E526F0121E557BFF26
:101B31007A1179FD900103E527F0121E557BFF7A9A
:101B4100127917900103E528F0121E557BFF7A12D6
:101B5100792D900103E529F0121E557BFF7A127948
:0A1B610043900103E52AF0021E552F
:102162003008181221DC7B007A007924121CB71285
:102172001A757BFF7A12795A121FB4E4F521F52001
:01218200223A
:030000000214CA1D
:1014CA009000DAE075A00075FC0075F41090000534
:1014DA00E054A0F07480900073F07400900002F061
:1014EA0075814478FEE4F6D8FD9001007F007E0104
:1014FA00E4F0A3DFFCDEFA43B80075A80002154544
:101000000000C0E000C0F0C083C082C0D0C0007546
:10101000D000C3E5FD9401F5FAE5F59400F5F290F2
:10102000007874A3F0D2FB74A055F8B4A0F9E5F9E8
:10103000B4000201FCB401028060B40202806EB40C
:1010400003028072B404028079B40502807DB40684
:101050000201D7B4070201E8B416028007B41702F0
:10106000801C80C330FDFD85F98330FDFD85F9824C
:10107000E0F5F9A320FE0280F720FC1C80F630FD8D
:10108000FD85F98330FDFD85F98230FD06E5F9F037
:10109000A380F720FC0280F2808D30FDFD85F9836E
:1010A00030FDFD85F982740093F5F9012730FDFDCF
:1010B000A8F986F9012730FDFDA8F930FDFDA6F954
:1010C000012730FDFDE5F9F5F9012730FDFDE5F9D2
:1010D00030FDFDF5F9012730FDFD85F98330FDFD7B
:1010E00085F982E0F5F9012730FDFD85F98330FDB2
:1010F000FD85F98230FDFDE5F9F00127E5885455BD
:10110000F588C2FB53885F53C83F90007CE04420C1
:10111000F09000B2E04410F0D000D0D0D082D08364
:0A112000D0F0D0E032000000000023
:0A1D7700011D00011E00C111C194FE
:101F4B00900E03E07870F27803E2900168F0E244BF
:101F5B0080F278737480F2780574A0F27801E25401
:101F6B007FF27878E244A0F27801E2547FF20874B1
:051F7B00A0F2D2AF222C
:102019007810E254FDF2E254FBF2E254F7F2781C34
:10202900E254FDF2E254FBF2E254F7F27810E24492
:1020390010F2E24420F27816E254DFF2E254EFF2B1
:012049002274
:0E221E00438901758A18758CFCD2A9D28C22D6
:03000B0002127965
:10127900C0E0C0F0C083C082C0D075D000C000C03B
:1012890001C002C003C004C005C006C007C28C75F6
:101299008A18758CFCD28C900160E0FCA3E0FDA358
:1012A900E0FEA3E02401FFE43EFEE43DFDE43CFC56
:1012B9009001601209F3900164E0FCA3E0FDA3E052
:1012C900FEA3E02401FFE43EFEE43DFDE43CFC9086
:1012D90001641209F3E47B0AFAF9F8900160E0FC71
:1012E900A3E0FDA3E0FEA3E0FF12090EAC00AD01EF
:1012F900AE02AF03E4FBFAF9F8C31209AE7002D2E9
:1013090015E47B64FAF9F8900160E0FCA3E0FDA321
:10131900E0FEA3E0FF12090EAC00AD01AE02AF037F
:10132900E4FBFAF9F8C31209AE7002D210E47BF4B7
:101339007A01F9F8900160E0FCA3E0FDA3E0FEA3C7
:10134900E0FF12090EAC00AD01AE02AF03E4FBFAF7
:10135900F9F8C31209AE7002D212E47BE87A03F9F4
:10136900F8900160E0FCA3E0FDA3E0FEA3E0FF121A
:10137900090EAC00AD01AE02AF03E4FBFAF9F8C304
:101389001209AE7002D213D007D006D005D004D00E
:1013990003D002D001D000D0D0D082D083D0F0D0F9
:0213A900E03230
:101F800030150AC215B2143014031218DC301308CD
:101F9000C213120026122162301218C2121221F747
:101FA0007816E2FFC45401F45401C454F0FEEF5417
:041FB000EF4EF222DC
:10197000EF14B40B00507790198575F003A4C5835C
:1019800025F0C583730219A60219AD0219B4021914
:10199000BB0219C20219C90219D00219D70219DEF5
:1019A0000219E50219E7759ACE759B2022759AA750
:1019B000759B1022759A93759B8822759A89759BE1
:1019C000C422759A84759BE222759A83759B402286
:1019D000759A82759B7122759A81759B3822759ACA
:1019E00080759BD0228007759A80759B3422759AEA
:0519F00080759B6822D8
:1021C0007811E2547FF208E24401F27827E24440B9
:0C21D000F27F0A121970759850D2AC22F0
:03002300021E9C1E
:101E9C00C0E0C083C082C0D075D00830981DC298F5
:101EAC00AF1D051D74692FF582E43401F583E599A6
:101EBC00F0E51DC394044003751D00309904C299CC
:0B1ECC00C211D0D0D082D083D0E03211
:0B224800E51DB51E037F00227F012270
:1021A200C2AC7469251EF582E43401F583E0FF05B3
:0D21B2001EE51EC394044003E4F51ED2ACEC
:0121BF0022FD
:0C0016002011FDC2AC8F99D211D2AC2297
:100FEF003031323334353637383941424344454650
:010FFF0000F1
:0B00460090012EEBF0A3EAF0A3E9F01C
:1000510090013C1209FF0000000190012EE0FBA37A
:10006100E475F001120842A9F0FA1207EF90013489
:10007100F0700302058924DB701B90012EE0FBA3C5
:10008100E0FAA3E0F91207EFB4251590012FE4750A
:10009100F00112082C2011FDC2AC90013402055D63
:1000A100C218C219E490013BF090012EE0FBA3E4D9
:1000B10075F001120842A9F0FA1207EF900134F02D
:1000C100E0FDB4301CD21890012EE0FBA3E475F0E2
:1000D10001120842A9F0FA1207EF900134F0E08012
:1000E10015C3ED648094B0402A900134E0FFD364DD
:1000F1008094B9501EEF24D090013BF090012EE086
:10010100FBA3E475F001120842A9F0FA1207EF907F
:100111000134F090013A7402F0900134E024BE60A1
:100121002B24E0602724F660042420703C90012EEB
:10013100E0FBA3E475F001120842A9F0FA1207EFFF
:10014100900134F090013A7404F0801D90012EE08A
:10015100FBA3E475F001120842A9F0FA1207EF902F
:100161000134F090013A7401F0900134E0FF24A8C9
:10017100700302040E24F5700302053224F07003AB
:100181000204E124FE600E24FD700302040E241417
:10019100600302056790013AE024FE604224FE609C
:1001A1007B2403600302023AEF900131B46419E049
:1001B100FBA3E475F001120842A9F0FA1207EFFF60
:1001C1003395E0FEFDFC806BE0FBA3E475F00112CA
:1001D1000842A9F0FA1207EFFFE4FCFDFE805490FB
:1001E1000134E0900131B4641BE0FBA3E475F0023B
:1001F100120842A9F0FA120858FFAEF0EE3395E06A
:10020100FDFC8016E0FBA3E475F002120842A9F0A0
:10021100FA120858FFAEF0E4FCFD8017900134E0BB
:10022100900131E0FBA3E475F004120842A9F0FA51
:100231001209D39001361209F3900136E0FCA3E0D4
:10024100FDA3E0FEA3E0FFEC3350292011FDC2AC79
:1002510075992DD211D2AC900136E0FCA3E0FDA33B
:10026100E0FEA3E0FF74FFFBFAF9F81208839001A6
:10027100361209F390013BE060030202FB90013664
:10028100E0FCA3E0FDA3E0FEA3E0FFEC4D4E4F70C8
:100291000B2011FDC2AC759930020560E490013B61
:1002A100F0A31209FF00000001900136E0FCA3E079
:1002B100FDA3E0FEA3E0FF90013CE0F8A3E0F9A379
:1002C100E0FAA3E0FB12090EE4FBFAF9F8C3120904
:1002D100AE602790013CE0FCA3E0FDA3E0FEA3E0BB
:1002E100FFE47B0AFAF9F812088390013C1209F342
:1002F10090013BE004F0E0B40AAFE4900135F090E6
:10030100013C1209FF0000000190013BE014FF9045
:100311000135E0FEC3EF6480F8EE648098502590CB
:10032100013CE0FCA3E0FDA3E0FEA3E0FFE47B0AC7
:10033100FAF9F812088390013C1209F3900135E0B3
:1003410004F080C5900136E0FCA3E0FDA3E0FEA32C
:10035100E0FF90013CE0F8A3E0F9A3E0FAA3E0FBA1
:1003610012090EEF2430FF900134F0BF3025201820
:1003710022E47F01FEFDFC90013CE0F8A3E0F9A33B
:10038100E0FAA3E0FBC31209AE60089001347420C7
:10039100F08002D2182011FDC2AC900134E0F59931
:1003A100D211D2AC900136E0FCA3E0FDA3E0FEA3A4
:1003B100E0FF90013CE0F8A3E0F9A3E0FAA3E0FB41
:1003C10012090EAC00AD01AE02AF03900136120965
:1003D100F390013CE0FCA3E0FDA3E0FEA3E0FFE419
:1003E1007B0AFAF9F812090E90013C1209F3E4FFB5
:1003F100FEFDFC90013CE0F8A3E0F9A3E0FAA3E0E4
:10040100FBC31209AE600302034502005B90013A8F
:10041100E024FE602224FE60392403704E900131F5
:10042100E0FBA3E475F001120842A9F0FA1207EF0C
:10043100FFE4FCFDFE802E900131E0FBA3E475F0AA
:1004410002120842A9F0FA120858FFAEF0E4FCFDCE
:100451008013900131E0FBA3E475F004120842A976
:10046100F0FA1209D39001361209F390013BE070C2
:100471000890013AE025E0A3F0E4900135F0900105
:100481003BE0FF900135E0FD3395E0FCC3ED9F7447
:1004910080F86C98400302005B2011FDC2AC900112
:1004A10035E0FF90013BE0C39F1425E025E0F99082
:1004B1000136E0FCA3E0FDA3E0FEA3E0FFA80112EA
:1004C10009BF7E00EF540F24EFF582EE340FF58360
:1004D100E493F599D211D2AC900135E004F0809EFD
:1004E100900131E0FBA3E475F003120842A9F0FA90
:1004F100120A30900140EBF0A3EAF0A3E9F0900179
:1005010040E0FBA3E0FAA3E0F91207EF7003020059
:100511005B2011FDC2AC900140E0FBA3E475F0014A
:10052100120842A9F0FA1207EFF599D211D2AC8064
:10053100CD900131E0FBA3E475F001120842A9F06E
:10054100FA1207EFFF3395E0FEFDFC900136120928
:10055100F32011FDC2AC900136A3A3A3E0F599D21B
:1005610011D2AC02005B900131E0FBA3E475F00213
:10057100120842A9F0FA120858FFAEF0E4FCFD900F
:0805810001361209F302005BD0
:01058900224F
:0B1E5500900100EBF0A3EAF0A3E9F01D
:101E60000090012B7401F0A37401F0A37403F090AF
:101E7000012BE0F9A3E0FAA3E0900131C9F0A3EA55
:101E8000F0A3E9F0900100E0FBA3E0FAA3E0F9126F
:0B1E9000004690012BE4F0A3F0A3F04B
:011E9B002224
:101FB400900108EBF0A3EAF0A3E9F0900108E0FB3C
:101FC400A3E0FAA3E0F91207EF6017900108A3E475
:101FD40075F001120842A9F0FA1207EFFF12001679
:031FE40080D9227F
:041D8100C116C117AF
:0320F1001220C9F1
:1020F400900146E004FEB40A02E4FE900147E06E5B
:102104006011900146EEF0E02448F582E43401F5D4
:0321140083EFF066
:0121170022A5
:102077001220C9BF0105C2177F0022C3900154E097
:1020870094FF900153E094FF500CA3E004F0700616
:09209700900153E004F07F0122E6
:1017A2007811E24440F2781DE24440F27827E244A4
:1017B20030F27811E24420F2781DE24420F27827D8
:1017C200E2440CF27811E24410F2781DE24410F285
:1017D2007827E24403F27811E24408F2781DE244E9
:1017E20008F27828E244C0F27811E24404F2781D4B
:1017F200E24404F27828E24430F27811E24402F240
:10180200781DE24402F27828E2440CF27811E244B4
:1018120001F2781DE24401F27828E24403F27810E2
:10182200E24480F2781CE24480F27825E244C0F27D
:0E18320078D07480F208F27F017E00021FE77A
:101F120078D17480F278D3EFF278D0E2547FF20075
:101F2200E24440F20078D0E220E6F9E4FE78D7E21B
:101F3200540FFD18E2C4F8540FC868FFEEC454F001
:081F420048FEED2FFFE43EFE16
:011F4A002274
:02211800A90715
:10211A00E4FBFAFCAF01121F12EF2BFBEE3AFA0CAA
:10212A00ECB410F0EAC4F854F0C868FAEBC4540FDF
:04213A0048AE02FFAA
:01213E00227E
:1020C9007816E2FEC31320E0037F0B22EE131354AC
:1020D9003F20E0037F0A227816E2131313541F20CE
:0820E900E0037F08227F0122C1
:1020A000900146E0FFA3E0B507037FFF22900147C0
:1020B000E004F0E0B40A02E4F0900147E02448F5BF
:0920C00082E43401F583E0FF2203
:10213F009001467409F0A3F09001437401F0E4900C
:10214F000153F0A3F07F0A90014874FFF0A3DFFC66
:02215F00C216A6
:01216100225B
:0E222C00900146E0FFA3E0B50702C322D322D3
:09225300900153E0FEA3E0FF221C
:08225C00E4900153F0A3F0220D
:1018DC0030160302196F900143E024FE602314605C
:1018EC003D14605B2403707B122077EF600BE49057
:1018FC000145F09001437402F0E4900153F0A3F021
:10190C0022122077EF60101220F19001527414F023
:10191C009001437403F0229001437401F0221220D1
:10192C0077EF6039900152E0603914F0E0703412B6
:10193C0020F1900144740AF09001437404F02212D7
:10194C002077EF6018900144E0601814F0E07013F9
:10195C001220C91220F4900144740AF02290014321
:04196C007402F022EF
:101DBE000D0A4B6579496E2050776D203D256400E4
:101DCE000A50415353204B4559434F44455F564F9C
:101DDE004C5550000A50415353204B4559434F44E4
:101DEE00455F564F4C444F574E000A5041535320B7
:0D1DFE004B4559434F44455F4D555445003A
:0B1D8500C19A41016D0042016E000098
:051C4E0090016DE0FFB4
:101C5300AC07E412073AE4FBFA79C8784212069318
:101C63009001001209F390016EE0FCA3E0FDE41281
:101C73000735900100E0F8A3E0F9A3E0FAA3E0FB45
:101C830012058A9001001209F3900100E0FCA3E021
:101C9300FDA3E0FEA3E0FF12076E900170EEF0A338
:101CA300EFF0900170E0FCA3E0FDECAE057853F299
:031CB30008EEF246
:011CB600220B
:101ED7007815E24401F2782FE24401F290016E7422
:101EE70001F0A3748FF090016EE07851F208748FBF
:101EF700F2E0C313FCA3E013FDEC08F2AF0508EF13
:0B1F0700F2121C4E7850E4F204F222AB
:1016FF0012222C40030217A11220A0EF24FE700526
:10170F00201702D217EF24F8607A24FD604404609A
:10171F00030217A120177BC21790016DE0C39446F7
:10172F005003E004F090016DE0D3944640037446FB
:10173F00F07BFF7A1D79BE90016DE0FF900103E40D
:10174F00F0A3EFF0121E55121C4E7BFF7A1D79CEBF
:10175F00803D20173DC21790016DE0D394004003E8
:10176F00E014F07BFF7A1D79BE90016DE0FF9001D0
:10177F0003E4F0A3EFF0121E55121C4E7BFF7A1DEF
:10178F0079E2800B20170BD2177BFF7A1D79F812A5
:02179F001FB475
:0117A1002225
:07226C00301A02D322C32245
:03227300B21A227A
:0100220022BB
:072264001221188E1B8F1CD4
:01226B002250
:0E223A007816E23018044420F22254DFF2221B
:1013AB003F065B4F666D7D277F6F000000000000DE
:1013BB000000000000000000000000000000000022
:1013CB00000102F878245D000000C0C000C00000DE
:1013DB003F06DBCFE6EDFD27FFEF000000C800A3C3
:1013EB005FF78F390FF9F1BDF6091E703836373FAD
:1013FB00F33FF3ED013E303600EE0900000000082C
:10140B0000F78F390FF9F1BDF6091E703836373FEB
:10141B00F33FF3ED013E303600EE094F4646204FC9
:10142B004E20205343414E73727170797B7A636205
:10143B006160696B6A53525150595B5A4342414048
:10144B00494B4A08090A0B03010218191A1B1311FD
:10145B001228292A2B23212238393A3B33313210D7
:10146B004868909178588382818088898A8B93927F
:10147B0030303030303030000000000000000B0006
:10148B00C8000100C901900002019102580003023B
:10149B005903200004032103E8000503E904B0000D
:1014AB000604B105780007057906400008064107D8
:0F14BB00080009070907D0000A07D10BB8000A7B
:101D900013320000000000000000000000000000FE
:101DA0000000000000430155000000013100012F38
:0D1DB00000012D00013000012E00012C006B
:10184000E4FBEB75F008A4900103F0E4900100F0D4
:101850007E01900100E0FDC394085063900103E015
:101860002D90146A93FD131313541F900101F0ED92
:101870005407A3F074552BF582E43401F583E05E40
:101880006019900101E02432F9A3E0FF7401A80778
:10189000088002C333D8FC47F78018900101E02488
:1018A00032F9A3E0FF7401A807088002C333D8FC13
:1018B000F457F7900100E004F0EE25E0FE80930B72
:1018C000EB64036003021842E4FB74322BF8E6FF7A
:0B18D00074802BF8EFF20BEBB413EF69
:0118DB0022EA
:10158A00E4FC74582CF582E43401F583E09013AB43
:10159A0093FB7A00EC75F007A4900102F0E4900145
:1015AA0000F0900103F0A304F0900100E0FFC3945F
:1015BA0007506B900102E02F900101F0E0FF243206
:1015CA00F8E6FDEF90143293F9131313541F9001A8
:1015DA0001F0E95407FF7401A807088002C333D851
:1015EA00FCF9900101E02432F8E6FD900103E05A8B
:1015FA00FEA3E05B4E6005ED49FD8004E9F45DFD64
:10160A00900101E02432F8A605900100E004F09070
:10161A000104E025E0F0900103E033F0808B0CEC4C
:10162A006408600302158CE4FC74322CF8E6FF743B
:0A163A00802CF8EFF20CECB413EF73
:011644002283
:101D1100EF14602114602A2402704CE4900172F0E7
:101D2100900172E0FFD39412503D74802FF8E4F2D9
:101D3100E004F080EBE4900155F0A3F0A3F0021869
:101D410040E4900172F0900172E0FFC394085014D6
:101D510074582FF582E43401F583E4F0900172E0C8
:071D610004F080E212158A74
:011D68002258
:101645007812E2441EF2E244E0F208E274FFF20886
:10165500E274FFF2782AE24455F218E24455F27832
:101665002BE24455F208E24455F208E24455F208EB
:10167500E24455F2787DE24401F2187420F278983C
:10168500E4F2087406F2087410F2E4900158F0A32D
:10169500F0A3F0A3F0A3F0A3F0A3F0A3F0900155FD
:1016A500E04401F04402F04404F04408F04410F032
:1016B5004420F04440F0547FF0A3E04401F044029C
:1016C500F04404F04408F04410F04420F04440F0A5
:1016D5004480F0A3E04401F012158A121840789C6A
:1016E50074FFF208F208F27898E4F2087406F2083A
:0A16F500741FF27898E24480F2229C
:100D64007F041222648E128F137F051222648E1464
:100D74008F15E5132515FFE5123514C313F510EF90
:100D840013F511AC10FDE4120735E4FBFA79807811
:100D9400451206938F1A8E198D188C177F007E804A
:100DA4007DB57C43AB1AAA19A918A81712058AE4C1
:100DB400FBFA792078411206938F1A8E198D188CBC
:100DC40017E4FBFA7920784112058A8F1A8E198D5F
:100DD400188C1712076E8F16851630E516D3946497
:100DE400900155E040174420F0E51675F06484AF97
:100DF400F0EF75F00A84900158F0EF800F54DFF0A3
:100E0400E51675F00A84900158F0E51675F00A8429
:100E1400A3E5F0F07F011222648E108F11AC10ADA7
:100E240011E4120735E4FBFA798078451206938FB2
:100E34001A8E198D188C177B337A337953784012B4
:100E4400058A8F1A8E198D188C17E4FFFE7D7A7C23
:100E540044AB1AAA19A918A81712058AE4FBFA794F
:100E64004E7843120693E4FBFA79407840120693D5
:100E74008F1A8E198D188C17E4FBFA792078411299
:100E8400058A8F1A8E198D188C1712076E8F168586
:100E9400162EE516C3940A500AE490015CF0A3E50B
:100EA40016F022E51675F00A8490015CF0E51675DB
:070EB400F00A84A3E5F0F051
:010EBB002214
:100AAB007F021222648E128F137F031222648E1424
:100ABB008F15E5132515FFE5123514C313F510EF4C
:100ACB0013F511AC10FDE4120735E4FBFA798078CD
:100ADB00451206938F1A8E198D188C177FCD7E8C2D
:100AEB007DF27C43AB1AAA19A918A81712058AE440
:100AFB00FBFA793C78421206938F1A8E198D188C5B
:100B0B0017E4FBFA7920784112058A8F1A8E198D1A
:100B1B00188C1712076E8F1685162FE516D3946453
:100B2B00900155E0401D4440F0E51675F00A84E550
:100B3B00F075F00A8490015AF0E51675F06484E5BF
:100B4B00F0800F54BFF0E51675F00A8490015AF04F
:100B5B00E51675F00A84A3E5F0F0E4FF1222648E2B
:100B6B00108F11AC10AD11E4120735E4FBFA79804C
:100B7B0078451206938F1A8E198D188C177B337A42
:100B8B00337953784012058A8F1A8E198D188C176A
:100B9B00E4FFFE7D7A7C44AB1AAA19A918A8171298
:100BAB00058AE4FBFA794E7843120693E4FBFA7953
:100BBB004078401206938F1A8E198D188C17E4FB10
:100BCB00FA7920784112058A8F1A8E198D188C1795
:100BDB0012076E8F1685162DE516C3940A500AE47C
:100BEB0090015EF0A3E516F022E51675F00A8490ED
:0D0BFB00015EF0E51675F00A84A3E5F0F048
:010C080022C9
:101B6B00E52FFD7C00AF2D7E0012081AAB07AA06ED
:101B7B00E530FDAF2E7E0012081AEB2FFFEA3EFE7A
:101B8B00E4FDED75F006A42482F582E43414F583AC
:101B9B00D37401939FE4939E5018ED75F006A42423
:101BAB0084F582E43414F583C37401939FE4939E0C
:101BBB0050050DEDB448CBEDC3940B40037F0A22C7
:101BCB00ED75F006A42486F582E43414F5837401D4
:021BDB0093FF76
:011BDD0022E5
:101E0B00052CE52CD394034003E4F52CE52C14604E
:101E1B001214601A1460252403702E900155E0549F
:101E2B00FB8006900155E04404F054F780099001C3
:101E3B0055E04404F04408F054EFF022900155E0D3
:0A1E4B004404F04408F04410F022B3
:100C0900EFB40B004003020D63900C19F828287308
:100C1900020C3A020C42020C51020C63020C7802DB
:100C29000C90020CAB020CC9020CEA020D0E020D6B
:100C390039900157E054FE8006900157E04401F0D5
:100C4900900156E0547F800D900157E04401F090E7
:100C59000156E04480F054BF8010900157E04401F0
:100C6900F0900156E04480F04440F054DF80139046
:100C79000157E04401F0900156E04480F04440F00F
:100C89004420F054EF8016900157E04401F09001A0
:100C990056E04480F04440F04420F04410F054F70A
:100CA9008019900157E04401F0900156E04480F02A
:100CB9004440F04420F04410F04408F054FB801CF8
:100CC900900157E04401F0900156E04480F044401F
:100CD900F04420F04410F04408F04404F054FD803E
:100CE9001F900157E04401F0900156E04480F04420
:100CF90040F04420F04410F04408F04404F0440269
:100D0900F054FE8022900157E04401F0900156E032
:100D19004480F04440F04420F04410F04408F0448A
:100D290004F04402F04401F0900155E0547FF022B0
:100D3900900157E04401F0900156E04480F04440AE
:100D4900F04420F04410F04408F04404F04402F068
:0B0D59004401F0900155E04480F022BE
:10002600E52FD39437900155E040044402F0225462
:03003600FDF022B8
:1021F700120AAB120D64121E0B121B6B121B6B1211
:082207000C0912158A021840AF
:10058A00EC4D6011E8497017ED33EC3304600DE46B
:10059A00FCFFFEFD22E933E8330470F80207DA12A1
:1005AA0007A558046009E4CC2481500628500902A2
:1005BA0007E42840030207E1C0E0EB4A7044B9802F
:1005CA0006D0E0FB0207D0EF4E701CBD8008EBFF9F
:1005DA00EAFEE9FD80EBE98DF0A4FEE5F002067380
:1005EA00E9CDF9EAFEEBFFEF89F0A4FCE5F0CE894C
:1005FA00F0A42EFFE435F0CD89F0A42DFEE435F009
:10060A008067EF4E7005BD80D780C3EF8BF0A4AC36
:10061A00F0EE8BF0A42CFCE435F0F8EF8AF0A42C71
:10062A00E5F038FCE433CB8DF0A42CFCE5F03BF884
:10063A00EE8AF0A42CFCE5F038F8E433CF89F0A474
:10064A002CFCE5F038CF3400CE89F0A42FFFE5F07A
:10065A003EFEE433C98DF0A42EFEE5F039CD8AF0D2
:10066A00A42FFFE5F03EFEE43DFD33D0E0FB50074A
:10067A000BBB000F0207E4EC2CFCEF33FFEE33FE5A
:06068A00ED33FD0207BC88
:100690000207E4EC5D046005E8590470030207DA20
:1006A0001207A5580460F6EC4860F2EC7004FDFEF9
:1006B000FF22C860DB2481C85009C398600250063D
:1006C0000207E19850CAF582E9294B4A7005AB82CE
:1006D0000207D075F0007C1A7880C3EF9BEE9AED8C
:1006E00099400DC3EF9BFFEE9AFEED99FDE842F0B5
:1006F000DC23ACF0D0E0FFD0E0FED0E0FDAB822008
:10070000E7101BEB60BAEC2CFCEF33FFEE33FEED91
:1007100033FD0207BCE803F830E705C0F075F000D0
:10072000EF2FFFEE33FEED33FD40B830E7C280AA75
:1007300075F020800E75F010800575F0087D007E44
:10074000007F003392D530D5031209A0EC3340105E
:10075000EF33FFEE33FEED33FDEC33FCD5F0ED224D
:0E076000E5F0247EA2D513CC92E7CDCEFF2289
:10076E00EDD2E7CD33EC3392D524814006E4FFFE83
:10077E00FDFC22FCE4CFCECDCC24E0501174FF80E2
:10078E00EDC3CC13CCCD13CDCE13CECF13CF04707F
:07079E00F030D5DE0209A0D6
:1007A500E9D2E7C933E833F892D5EDD2E7CD33EC9A
:0707B50033FC5002B2D52213
:1007BC00EC30E7100FBF000C0EBE00080DBD00049E
:1007CC000BEB6014A2D5EB13FCED92E7FD2274FF4A
:1007DC00FCFDFEFF22E480F8A2D574FF13FC7D80A3
:0307EC00E480EFB7
:10150A00021BDEE493A3F8E493A34003F68001F2FE
:10151A0008DFF48029E493A3F85407240CC8C333E2
:10152A00C4540F4420C8834004F456800146F6DFB1
:10153A00E4800B0102040810204080901D69E47EBB
:10154A00019360BCA3FF543F30E509541FFEE493A6
:10155A00A360010ECF54C025E060A840B8E493A36D
:10156A00FAE493A3F8E493A3C8C582C8CAC583CA98
:10157A00F0A3C8C582C8CAC583CADFE9DEE780BE50
:011DBD000025
:1007EF00BB010689828A83E0225002E722BBFE0208
:0907FF00E32289828A83E493223B
:10080800BB010689828A83F0225002F722BBFE01CF
:02081800F322C9
:10081A00EF8DF0A4A8F0CF8CF0A428CE8DF0A42EF2
:02082A00FE22AC
:10082C00C5F0F8A3E028F0C5F0F8E5821582700257
:06083C001583E038F022F4
:10084200A3F8E0C5F025F0F0E58215827002158369
:06085200E0C838F0E822C6
:10085800BB010A89828A83E0F5F0A3E0225006876B
:10086800F009E71922BBFE07E3F5F009E31922892D
:0B087800828A83E493F5F07401932260
:10088300E88FF0A4CC8BF0A42CFCE98EF0A42CFC14
:100893008AF0EDA42CFCEA8EF0A4CDA8F08BF0A492
:1008A3002DCC3825F0FDE98FF0A42CCD35F0FCEBF1
:1008B3008EF0A4FEA9F0EB8FF0A4CFC5F02ECD39B6
:0F08C300FEE43CFCEAA42DCE35F0FDE43CFC2223
:1008D20075F008758200EF2FFFEE33FECD33CDCCDD
:1008E20033CCC58233C5829BED9AEC99E582984060
:1008F2000CF582EE9BFEED9AFDEC99FC0FD5F0D63D
:10090200E4CEFBE4CDFAE4CCF9A88222B800C1B966
:100912000059BA002DEC8BF084CFCECDFCE5F0CBA4
:10092200F97818EF2FFFEE33FEED33FDEC33FCEBDD
:1009320033FB10D703994004EB99FB0FD8E5E4F998
:10094200FA227818EF2FFFEE33FEED33FDEC33FC85
:10095200C933C910D7059BE99A4007EC9BFCE99A79
:10096200F90FD8E0E4C9FAE4CCFB2275F010EF2FBE
:10097200FFEE33FEED33FDCC33CCC833C810D707BE
:100982009BEC9AE899400AED9BFDEC9AFCE899F8F9
:0E0992000FD5F0DAE4CDFBE4CCFAE4C8F9228C
:0E09A000C3E49FFFE49EFEE49DFDE49CFC2268
:1009AE00EB9FF5F0EA9E42F0E99D42F0E89C45F09F
:0109BE002216
:1009BF00E86010ECA2E713FCED13FDEE13FEEF134E
:0409CF00FFD8F0223B
:1009D300BB010789828A83020A5C5005E9F8020A8F
:1009E30050BBFE05E9F8020A6889828A83020A7409
:0C09F300ECF0A3EDF0A3EEF0A3EFF02277
:1009FF00A8828583F0D083D082120A16120A1612AB
:100A0F000A16120A16E473E493A3C583C5F0C583CF
:100A1F00C8C582C8F0A3C583C5F0C583C8C582C841
:010A2F0022A4
:100A3000BB010789828A83020A8D5005E9F8020A00
:100A400084BBFE05E9F8020A9689828A83020A9F1E
:0C0A5000E6FC08E6FD08E6FE08E6FF22D2
:0C0A5C00E0FCA3E0FDA3E0FEA3E0FF220D
:0C0A6800E2FC08E2FD08E2FE08E2FF22CA
:100A7400E493FC740193FD740293FE740393FF22C8
:090A8400E6FB08E6FA08E6F92297
:090A8D00E0FBA3E0FAA3E0F9226A
:090A9600E2FB08E2FA08E2F92291
:0C0A9F00E493FB740193FA740293F922B3
:00000001FF
