:0300030002000FE9
:01000F0032BE
:03001300020010D8
:0100100032BD
:03003B00020011AF
:0100110032BC
:03004300020012A6
:0100120032BB
:1004F0000A0A0A000A2A2A2A2A2A2A2A2A2A2A2A06
:100500002A2A2A2A2A2A2A2A2A2A2A2A2A2A2A2A4B
:100510002A2A2A2A2A2A2A2A2A2A2A2A2A2A2A2A3B
:100520002A2A2A2A2A2A2A2A2A2A2A2A2A000A534C
:100530006934373578204D6963726F64696769740F
:10054000616C20426F617264202D20257320282564
:1005500073290031373A30393A3337004E6F7620FD
:08056000303520323031370044
:08000600021E0000021C0000B4
:100568001200001200001200001200007BFF7A0443
:1005780079F01200A87BFF7A0479F41200A8750BB1
:10058800FF750C05750D53750EFF750F0575105C1D
:100598007BFF7A05792E1200A87BFF7A0479F41282
:1005A80000A87F017E001205C2120000120000128E
:0A05B800000012000012000080F89D
:1005C200E4FDFCC3ED9FEC9E5022E4FBFA00000028
:1005D200000000000000000000000BBB00010AEB5D
:0C05E20064964A70E80DBD00010C80D743
:0105EE0022EA
:0F001600EF1FAC0670011E4C6004000080F22248
:0F002500E4F51EF51FC3E51F9FE51E9E40F72261
:030000000203A256
:1003A2009000DAE075A00075FC0075F4109000056D
:1003B200E054A0F07480900073F07400900002F09A
:1003C20075812178FEE4F6D8FD9001007F007E0160
:1003D200E4F0A3DFFCDEFA43B80075A80002041DB6
:101000000000C0E000C0F0C083C082C0D0C0007546
:10101000D000C3E5FD9401F5FAE5F59400F5F290F2
:10102000007874A3F0D2FB74A055F8B4A0F9E5F9E8
:10103000B4000201FCB401028060B40202806EB40C
:1010400003028072B404028079B40502807DB40684
:101050000201D7B4070201E8B416028007B41702F0
:10106000801C80C330FDFD85F98330FDFD85F9824C
:10107000E0F5F9A320FE0280F720FC1C80F630FD8D
:10108000FD85F98330FDFD85F98230FD06E5F9F037
:10109000A380F720FC0280F2808D30FDFD85F9836E
:1010A00030FDFD85F982740093F5F9012730FDFDCF
:1010B000A8F986F9012730FDFDA8F930FDFDA6F954
:1010C000012730FDFDE5F9F5F9012730FDFDE5F9D2
:1010D00030FDFDF5F9012730FDFD85F98330FDFD7B
:1010E00085F982E0F5F9012730FDFD85F98330FDB2
:1010F000FD85F98230FDFDE5F9F00127E5885455BD
:10110000F588C2FB53885F53C83F90007CE04420C1
:10111000F09000B2E04410F0D000D0D0D082D08364
:0A112000D0F0D0E032000000000023
:1003E200020568E493A3F8E493A34003F68001F2C4
:1003F20008DFF48029E493A3F85407240CC8C3331C
:10040200C4540F4420C8834004F456800146F6DFEA
:10041200E4800B0102040810204080900006E47E74
:10042200019360BCA3FF543F30E509541FFEE493DF
:10043200A360010ECF54C025E060A840B8E493A3A6
:10044200FAE493A3F8E493A3C8C582C8CAC583CAD1
:10045200F0A3C8C582C8CAC583CADFE9DEE780BE89
:01000E0000F1
:10004600E517240BF8E60517227808300702780B27
:10005600E475F0011204BA0204622000EB7F2ED28E
:10006600008018EF540F2490D43440D4FF30040B92
:10007600EF24BFB41A0050032461FFE5186002158F
:1000860018051BE51B7002051A30070D7808E47584
:10009600F0011204BAEF0204A80205EF7403D207B6
:1000A6008003E4C207F5178B088A09890AE4F51864
:1000B600F51AF51BE51860077F2012008180F5759B
:1000C60019FFC201C200C202C203C205C206C208AB
:1000D60012004FFF700D3007057F00120092AF1B14
:1000E600AE1A22B4255FC2D5C20412004FFF24D037
:1000F600B40A00501A75F00A781830D50508B6FF0C
:100106000106C6A426F620D5047002D20380D9249F
:10011600CFB41A00EF5004C2E5D204020292D20113
:1001260080C6D20080C0D20280BCD2D580BAD205A9
:1001360080B47F201200812002077401B5180040A8
:10014600F1120046FF1200810200BAD208D20680E0
:1001560095120046FB120046FA120046F94A4B7009
:100166000679637A037BFF20022EE518602A7E005B
:100176008E8275830012047B60060EEE651970F0A0
:10018600C2D5EBC0E0EAC0E0E9C0E0EE1202D9D089
:10019600E0F9D0E0FAD0E0FB120462FF60AAEBC0FF
:1001A600E0EAC0E0E9C0E0120081D0E02401F9D025
:1001B600E03400FAD0E0FBE5190460DCD519D980FB
:1001C600877BFF7A0279D5D202809C7910800279EA
:1001D60008C206C2088008D2D5790A8004790AC204
:1001E600D5E519047002F519E4FAFDFEFF12004682
:1001F600FC7B08200113120046FD7B1030000A121A
:100206000046FE120046FF7B20EC3382D592D55085
:1002160013C3E43000069FFFE49EFEE42001039D25
:10022600FDE49CFCE4CBF8C201EC700CCFCECDCC47
:10023600E824F8F870F38017C3EF33FFEE33FEEDD2
:1002460033FDEC33FCEB33FB994002FB0FD8E9EBB3
:10025600300105F8D0E0C448B201C0E00AEC4D4ECA
:100266004F78207B0070C2EAB5190040BCC0E0128E
:1002760002DBD0F0D0E0200104C4C0E0C4B201C06B
:10028600F012006AD0F0D5F0EB0200BA1204CA01EF
:10029600575301D15801284C01244201D54F01DDA5
:0F02A6004401DD49013D4301E35501C74601C74E
:1002B5004501C747038350012C2D01302E01532BD7
:1002C500013423015120036C2A00EC480000014B46
:1002D5003F3F3F00790AA2D5200314300509B91024
:1002E500020404B9080104A2D52006025001042025
:1002F50002689202B518005034C0E07F203003191F
:100305007F30A20272067205500F120332C202C27A
:1003150006C205C2087F30800F300503E9C0E01230
:100325000081300503D0E0F9D0E0B518CC300517D1
:100335007F30B9100C1200817F583004077F788018
:1003450003B908031200813002057F2D0200817F69
:10035500202008F87F2B2006F322920280CF286EFA
:10036500756C6C2900D2011200463001F8C2017883
:100375001830D50108F60200EC2D504349581200FB
:10038500462403B405004001E490037E93120072F5
:0D039500743A120072D2037518040201D1EF
:10046200BB010689828A83E0225002E722BBFE0298
:09047200E32289828A83E49322CB
:10047B00BB010CE58229F582E5833AF583E0225036
:10048B0006E92582F8E622BBFE06E92582F8E22280
:0D049B00E58229F582E5833AF583E493229A
:1004A800BB010689828A83F0225002F722BBFE0133
:0204B800F3222D
:1004BA00FAE6FB0808E6F925F0F618E6CA3AF62243
:1004CA00D083D082F8E4937012740193700DA3A3C1
:1004DA0093F8740193F5828883E4737402936860D5
:0604EA00EFA3A3A380DFD5
:1005EF00EFB40A07740D1205FA740A309811A8991E
:1005FF00B8130CC2983098FDA899C298B811F6306C
:07060F0099FDC299F5992243
:00000001FF
